:100000000C9434000C9446000C9446000C9446006A
:100010000C9446000C9446000C9446000C94460048
:100020000C9446000C9446000C9446000C94460038
:100030000C9446000C9446000C9457000C94460017
:100040000C9446000C9446000C9446000C94460018
:100050000C9446000C9446000C9446000C94460008
:100060000C9446000C94460011241FBECFEFD8E03C
:10007000DEBFCDBF21E0A0E0B1E001C01D92A33002
:10008000B207E1F70E94B7000C9433010C94000012
:1000900084B5826084BD85B5856085BD16BC8FEF53
:1000A00087BDEEE6F0E080818260808308951F9234
:1000B0000F920FB60F9211248F93809102018F5FE0
:1000C0008093020180910201883070F01092020149
:1000D00080910101813029F41092000110920101F8
:1000E00003C081E0809301018F910F900FBE0F90AC
:1000F0001F9018953898EAE7F0E080818760808348
:10010000ACE7B0E08C9180648C93808180628083C6
:100110008081806880838081806480830895CF920D
:10012000DF92EF92FF920F931F93E0E2F0E0C12C79
:10013000D12C7601C3949701860106231723282327
:100140003923012B022B032B11F05C9A01C05C9820
:100150005D985D9ACC0CDD1CEE1CFF1C319759F7A5
:100160001F910F91FF90EF90DF90CF9008958FE750
:100170008AB95798229878940E947A000E94480081
:1001800055245A946894662463F808E710E0C9E798
:10019000D0E077247394812C912C54018394C12C4A
:1001A000D12C6894EE24E4F8F12C1A9B02C057BCC1
:1001B00001C067BCF80190816881809100018111C4
:1001C00007C016BC7092000110920201109201014A
:1001D00080910001882349F38091020180FF02C0D1
:1001E000589A01C058988091020181FF02C0599A23
:1001F00001C059988091020182FF02C05A9A01C041
:100200005A98292F229526952695237070E0660F1F
:10021000771F660F771FCB01AA2797FDA095BA2FEE
:10022000822BBC0180910101811102C0C70101C074
:10023000C601680F791FA501940104C0220F331F66
:10024000441F551F6A95D2F7CA01B9010E948F0059
:100250005E985E9A5B9A8FEC97E00197F1F700C089
:0A02600000005B98A2CFF894FFCFD6
:00000001FF
