:100000000C9434000C9451000C9451000C94510049
:100010000C9451000C9451000C9451000C9451001C
:100020000C9451000C9451000C9451000C9451000C
:100030000C9451000C9451000C9451000C945100FC
:100040000C9451000C9451000C9451000C945100EC
:100050000C9451000C9451000C9451000C945100DC
:100060000C9451000C94510011241FBECFEFD8E026
:10007000DEBFCDBF11E0A0E0B1E0ECE3FAE002C0EA
:1000800005900D92A430B107D9F721E0A4E0B1E0CA
:1000900001C01D92AC30B207E1F70E9401030C943D
:1000A0001C050C9400008F929F92AF92BF92CF924A
:1000B000EF92FF920F931F93CF93DF93F9019C2D43
:1000C0009D3641F4E230F10570F4812C912C5401FD
:1000D000839406C09D34B1F3812C912C54018394F8
:1000E000309781F497C0812C912C54018394A1E026
:1000F000B0E0880C991CAA1CBB1C1196AE17BF0758
:10010000C1F7EECFA1E0B0E09D0102C0220F331F86
:100110004A95E2F7A901322F242F2095AD0102C0A4
:10012000440F551F6A95E2F7D42FD095C42FA0E055
:10013000B0E0B501A4014E215F2160237123452B5E
:10014000462B472BD1F08434A1F028F4823449F0B7
:10015000833461F50AC0833641F0843651F082362B
:1001600029F545B1432B45B921C048B1432B48B9C6
:100170001DC04BB1432B4BB919C08434A1F028F4F6
:10018000823449F0833491F40AC0833641F08436D6
:1001900051F0823659F445B1422345B907C048B100
:1001A000422348B903C04BB142234BB98434D1F048
:1001B00028F4823449F08334D9F40DC0833659F0E1
:1001C000843681F08236A1F44BB14D234BB94BB14B
:1001D0004C2B4BB90DC04BB14D234BB94BB14C2BF4
:1001E0004BB906C05BB15D235BB95BB15C2B5BB9FE
:1001F0009D3611F09D3429F4B694A7949794879472
:1002000004C0880C991CAA1CBB1C1196AE17BF0712
:1002100009F08FCFDF91CF911F910F91FF90EF9059
:10022000CF90BF90AF909F908F9008956FEF7FEF2A
:10023000AFEFBFEF80E090E0FC01F695E795F69513
:10024000E795F695E795EC5FFE4F208130E0AC0135
:100250004770552702C0359527954A95E2F720FF4C
:1002600006C06F3F2FEF720709F4BC01DC01019655
:100270008D33910509F77093030160930201B093E8
:100280000101A093000108950F931F93CF93DF9373
:10029000811101C086E08650E0E0F0E0C1E0D0E0EE
:1002A0008A019B010E2E04C0369527951795079558
:1002B0000A94D2F700FF14C0A82FA695A695A6957C
:1002C000B0E0AC5FBE4F282F27708E0102C0000F38
:1002D000111F2A95E2F798019C91292B2C9314C0A9
:1002E000A82FA695A695A695B0E0AC5FBE4F282F87
:1002F00027708E0102C0000F111F2A95E2F79801A6
:1003000020959C9129232C9331968A5FEB30F1053F
:1003100039F6DF91CF911F910F9108954098419840
:10032000419A40E050E020E030E061E070E0329B34
:1003300009C0CB01022E02C0880F991F0A94E2F770
:10034000482B592B4098409A2F5F3F4F2031310561
:1003500071F7842F952F08951F93CF93DF935C9AA5
:100360005B985B9A5C9810E00E948E01EC01AC01F6
:1003700060E070E0812F0E9444015B985B9A1F5FF0
:10038000163091F70E9416018C2F9D2FDF91CF918F
:100390001F9108958F929F92AF92BF92CF92DF925A
:1003A000EF92FF920F931F938091020190910301AE
:1003B000019619F042E050E002C040E050E081E0D8
:1003C00090E020910001309101012F3F3F4F11F447
:1003D00080E090E07A01E82AF92A0027F7FC0095EE
:1003E000102F0F2EFDE4CF2EF02D22E030E041E063
:1003F00060E084E40E94530020910701922F9170E5
:1004000080E0209106017C01E22AE094F09400E073
:1004100010E029E030E041E060E084E40E94530015
:100420009091050180E0209104017C01E22AE09492
:10043000F09400E010E020E130E041E060E084E48E
:100440000E94530060910001709101016F3F8FEF96
:10045000780751F00F2EC12CF0EFDF2EFFE7EF2EC3
:10046000F5E4FF2EF02D03C0C12CD12C7601882796
:1004700077FD8095982F0E942D0420E030E040E722
:1004800052E40E9497039B01AC01C701B6010E9490
:10049000B9040E94FF03C62ED72EE82EF92E6091D4
:1004A0000201709103016F3F2FEF720751F00F2E81
:1004B000812CF0EF9F2EFFE7AF2EF5E4BF2EF02D3D
:1004C00003C0812C912C5401882777FD8095982FAB
:1004D0000E942D0420E030E040E752E40E949703A0
:1004E0009B01AC01C501B4010E94B9040E94FF0345
:1004F000DC01CB01072E7CE0880F991FAA1FBB1FD0
:100500007A95D1F7702D87017601E82AF92A0A2B0E
:100510001B2B0F2EFDE4CF2EF02D28E130E041E023
:1005200060E084E40E9453005A985A9A1F910F91F8
:10053000FF90EF90DF90CF90BF90AF909F908F9003
:1005400008958F929F92AF92BF92CF92EF92FF92B7
:100550000F931F93CF93DF9361E070E09B0102C084
:10056000220F331F8A95E2F7B901882777FD80951E
:10057000982F0E942D044B015C01C0E0D0E0BE0129
:1005800080E090E00E942B0420E030E044E752E459
:100590000E94970320E030EF4FE755E40E94B90432
:1005A0000E94FF0380E090E00E942B04A5019401CB
:1005B0000E94970320E030E040E05FE30E943303B5
:1005C0000E94FF030F2EFDE4CF2EF02D7B018C0146
:1005D0002CE030E041E060E084E40E9453005A984F
:1005E0005A9A2196CD33D10551F6DF91CF911F91C3
:1005F0000F91FF90EF90CF90BF90AF909F908F9012
:10060000089587B1836087B93A988AB188618AB9B9
:100610008AB187608AB95B985C98589859984098D5
:10062000419AFF24F394C0E0D0E0DD24D39400E0AD
:1006300010E0E12C04C0FD2C02C0FD2CE8010E945A
:10064000AC0193FF0BC0CE010E94A102F110F3CFC9
:100650002196CC30D1058CF7FD2CF1CF0E94CA0138
:10066000FE2CEDCF5058BB27AA270ED048C139D158
:1006700030F03ED120F031F49F3F11F41EF42EC132
:100680000EF4E095E7FB24C1E92F4AD180F3BA17B5
:10069000620773078407950718F071F49EF562C12D
:1006A0000EF4E0950B2EBA2FA02D0B01B90190018D
:1006B0000C01CA01A0011124FF27591B99F0593FD1
:1006C00050F4503E68F11A16F040A22F232F342F19
:1006D0004427585FF3CF469537952795A795F04067
:1006E0005395C9F77EF41F16BA0B620B730B840B7C
:1006F000BAF09150A1F0FF0FBB1F661F771F881F34
:10070000C2F70EC0BA0F621F731F841F48F487958B
:1007100077956795B795F7959E3F08F0B3CF93957A
:10072000880F08F09927EE0F9795879508950CD0BC
:10073000E6C0DED040F0D5D030F021F45F3F19F0B4
:10074000C7C0511110C1CAC0EBD098F39923C9F3A7
:100750005523B1F3951B550BBB27AA2762177307C7
:10076000840738F09F5F5F4F220F331F441FAA1F7B
:10077000A9F333D00E2E3AF0E0E830D0915050403B
:10078000E695001CCAF729D0FE2F27D0660F771FE9
:10079000881FBB1F261737074807AB07B0E809F0CB
:1007A000BB0B802DBF01FF2793585F4F2AF09E3F60
:1007B000510568F08DC0D7C05F3FECF3983EDCF385
:1007C000869577956795B795F7959F5FC9F7880FD9
:1007D000911D9695879597F90895E1E0660F771F2B
:1007E000881FBB1F621773078407BA0720F0621BBC
:1007F000730B840BBA0BEE1F88F7E095089598D021
:1008000088F09F5790F0B92F9927B751A0F0D1F0F9
:10081000660F771F881F991F1AF0BA95C9F712C083
:10082000B13081F09FD0B1E008959CC0672F782F40
:100830008827B85F39F0B93FCCF3869577956795EF
:10084000B395D9F73EF490958095709561957F4F5B
:100850008F4F9F4F0895E89409C097FB3EF4909501
:100860008095709561957F4F8F4F9F4F9923A9F089
:10087000F92F96E9BB279395F69587957795679518
:10088000B795F111F8CFFAF4BB0F11F460FF1BC05C
:100890006F5F7F4F8F4F9F4F16C0882311F096E9EF
:1008A00011C0772321F09EE8872F762F05C066239D
:1008B00071F096E8862F70E060E02AF09A95660F56
:1008C000771F881FDAF7880F9695879597F908950F
:1008D00097F99F6780E870E060E008959FEF80ECF3
:1008E000089500240A941616170618060906089596
:1008F00000240A9412161306140605060895092EFC
:100900000394000C11F4882352F0BB0F40F4BF2B6A
:1009100011F460FF04C06F5F7F4F8F4F9F4F0895AA
:1009200057FD9058440F551F59F05F3F71F04795A0
:10093000880F97FB991F61F09F3F79F08795089585
:10094000121613061406551FF2CF4695F1DF08C0A4
:10095000161617061806991FF1CF869571056105C1
:1009600008940895E894BB2766277727CB0197F969
:1009700008950BD0C4CFB5DF28F0BADF18F0952367
:1009800009F0A6CFABCF1124EECFCADFA0F3959F1D
:10099000D1F3950F50E0551F629FF001729FBB2766
:1009A000F00DB11D639FAA27F00DB11DAA1F649F12
:1009B0006627B00DA11D661F829F2227B00DA11DC5
:1009C000621F739FB00DA11D621F839FA00D611D4B
:1009D000221F749F3327A00D611D231F849F600D6C
:1009E000211D822F762F6A2F11249F5750408AF0A5
:1009F000E1F088234AF0EE0FFF1FBB1F661F771F31
:100A0000881F91505040A9F79E3F510570F060CF6C
:100A1000AACF5F3FECF3983EDCF386957795679518
:100A2000B795F795E7959F5FC1F7FE2B880F911D4E
:0C0A30009695879597F90895F894FFCFEC
:040A3C00FFFFFFFFBA
:00000001FF
