S011000046726571436F756E742E737265637C
S113000010C028C027C071C025C024C0FFC022C0B2
S113001021C020C01FC01EC01DC01CC01BC01AC0F0
S113002019C011241FBECFEDCDBF10E0A0E6B0E093
S1130030E4E9F7E002C005900D92AA36B107D9F7BA
S113004020E0AAE6B0E001C01D92A837B207E1F7AC
S1130050F5D09EC3D5CF0F93CF93DF930F7DE1E00F
S1130060F0E00D3439F49FEF940F02C0EE0FFF1F40
S11300709A95E2F7A1E0B0E0ED0102C0CC0FDD1FDC
S11300806A95E2F7BE015C2F6095ED0102C0CC0FCA
S1130090DD1F8A95E2F7CE017C2F70954423C9F0C9
S11300A0DF01A223B3239BB3AB2B11F0952B01C02B
S11300B096239BBB9BB397239BBB9BB3982B9BBB68
S11300C00D3419F4F695E79502C0EE0FFF1F415069
S11300D0E5CFDF91CF910F9108958EB581608EBDEC
S11300E08FEF8BBD8ABD619A08951F920F920FB650
S11300F00F9211248F929F92AF92BF92CF92DF9270
S1130100EF92FF922F933F934F935F936F937F935D
S11301108F939F93AF93BF93EF93FF9396B38CB555
S1130120CDB492FF5AC0D12CDC2CCC24C80ED11CE7
S113013080916F009091700001969093700080936D
S11301406F00E12CF12C8091710090E0A0E0B0E010
S1130150DC01992788278C0D9D1DAE1DBF1D8032A3
S1130160914AA740B105C8F11DBC1CBC60916F0049
S11301707091700080E090E0EAD14B015C01C7010E
S1130180B601E5D125E93FEB46E553E396D26B0191
S11301907C0180917100682F70E080E090E0D9D1FB
S11301A025E93FEB46E55BE388D29B01AC01C7013F
S11301B0B601D1D09B01AC01C501B40134D1609327
S11301C06B0070936C0080936D0090936E0010929E
S11301D0700010926F0010927100FF91EF91BF9127
S11301E0AF919F918F917F916F915F914F913F91CB
S11301F02F91FF90EF90DF90CF90BF90AF909F90A2
S11302008F900F900FBE0F901F9018951F920F9212
S11302100FB60F9211248F93809171008F5F80939A
S113022071008F910F900FBE0F901F9018958BB790
S113023080628BBF80B5846080BD0895BA98D39ADC
S1130240D59AD49A789449DFF2DFAA24A394B12CE6
S113025080916A00863010F580916A0090E0FC017C
S1130260EE58FF4F40810896950102C0220F331FBC
S11302708A95E2F7242B0DE640E163E085E0EBDEAE
S1130280DC98DC9A8FE097E20197F1F700C0000058
S113029080916A008F5F80936A00DACF10926A00BF
S11302A040906B0050906C0060906D0070906E00F8
S11302B00DE010E0C3E680E8C82E86E9D82E88E178
S11302C0E82E8BE4F82EA7019601C301B201F1D107
S11302D087FD02C0C33619F0C63074F501C0C0E012
S11302E0A7019601C301B2019ED005D1D62F70E0BB
S11302F080E090E02CD1A7019601DFD19B01AC01F5
S1130300C301B20127D02B013C01ED2FF0E0E05AEC
S1130310FF4FD08120E030E040E85FE3C701B60141
S11303207ED0EC2F0C2E000CFF0BEE58FF4F8111EA
S113033001C0D068D083CF5F20E030E040E251E4D8
S1130340C701B60170D06B017C010150110909F09D
S1130350BACF82CF5058BB27AA270ED070C161D123
S113036030F066D120F031F49F3F11F41EF456C1F1
S11303700EF4E095E7FB4CC1E92F72D180F3BA1774
S1130380620773078407950718F071F49EF58AC114
S11303900EF4E0950B2EBA2FA02D0B01B90190019C
S11303A00C01CA01A0011124FF27591B99F0593FE0
S11303B050F4503E68F11A16F040A22F232F342F28
S11303C04427585FF3CF469537952795A795F04076
S11303D05395C9F77EF41F16BA0B620B730B840B8B
S11303E0BAF09150A1F0FF0FBB1F661F771F881F43
S11303F0C2F70EC0BA0F621F731F841F48F487959B
S113040077956795B795F7959E3F08F0B3CF939589
S1130410880F08F09927EE0F979587950895D4D003
S113042008F481E008950CD00AC102D140F0F9D05B
S113043030F021F45F3F19F0EBC0511134C1EEC02C
S11304400FD198F39923C9F35523B1F3951B550B99
S1130450BB27AA2762177307840738F09F5F5F4F93
S1130460220F331F441FAA1FA9F333D00E2E3AF0D4
S1130470E0E830D091505040E695001CCAF729D0EE
S1130480FE2F27D0660F771F881FBB1F261737073D
S11304904807AB07B0E809F0BB0B802DBF01FF276D
S11304A093585F4F2AF09E3F510568F0B1C0FBC0DE
S11304B05F3FECF3983EDCF3869577956795B795A7
S11304C0F7959F5FC9F7880F911D9695879597F9C2
S11304D00895E1E0660F771F881FBB1F621773073B
S11304E08407BA0720F0621B730B840BBA0BEE1F50
S11304F088F7E0950895BCD088F09F5790F0B92F05
S11305009927B751A0F0D1F0660F771F881F991F64
S11305101AF0BA95C9F712C0B13081F0C3D0B1E076
S11305200895C0C0672F782F8827B85F39F0B93F86
S1130530CCF3869577956795B395D9F73EF4909566
S11305408095709561957F4F8F4F9F4F0895E894E4
S113055009C097FB3EF490958095709561957F4F07
S11305608F4F9F4F9923A9F0F92F96E9BB279395B5
S1130570F695879577956795B795F111F8CFFAF4C5
S1130580BB0F11F460FF1BC06F5F7F4F8F4F9F4FF6
S113059016C0882311F096E911C0772321F09EE854
S11305A0872F762F05C0662371F096E8862F70E0BA
S11305B060E02AF09A95660F771F881FDAF7880F94
S11305C09695879597F90895990F0008550FAA0BEA
S11305D0E0E8FEEF16161706E807F907C0F0121652
S11305E01306E407F50798F0621B730B840B950B55
S11305F039F40A2661F0232B242B252B21F40895AA
S11306000A2609F4A140A6958FEF811D811D089546
S113061097F99F6780E870E060E008959FEF80ECB1
S1130620089500240A941616170618060906089554
S113063000240A9412161306140605060895092EBA
S11306400394000C11F4882352F0BB0F40F4BF2B29
S113065011F460FF04C06F5F7F4F8F4F9F4F089569
S113066057FD9058440F551F59F05F3F71F047955F
S1130670880F97FB991F61F09F3F79F08795089544
S1130680121613061406551FF2CF4695F1DF08C063
S1130690161617061806991FF1CF86957105610580
S11306A008940895E894BB2766277727CB0197F928
S11306B008958ADF08F48FEF08950AD0C0CFB1DF20
S11306C028F0B6DF18F0952309F0A2CFA7CFEBCF1F
S11306D0C7DFA8F39923D9F35523C9F3950F50E045
S11306E0551FAA27EE27FF27BB27002408946795E8
S11306F020F4E20FF31FB41F0A1E220F331F441FFE
S1130700AA1F6695A9F7779530F4F30FB41F0A1E54
S1130710121E08F46395330F441FAA1F221F7695F7
S113072099F7879520F4B40F0A1E121E631F440F15
S1130730AA1F221F331F8695A9F7862F712D602DBE
S113074011249F5750408AF0E1F088234AF0EE0FBD
S1130750FF1FBB1F661F771F881F91505040A9F7CA
S11307609E3F510570F054CF9ECF5F3FECF3983E0F
S1130770DCF3869577956795B795F795E7959F5F31
S1130780C1F7FE2B880F911D9695879597F90895CB
S1070790F894FFCF07
S10D07943F065B4F666D7D077F672B
S9030000FC
