S00B00004253492E737265633B
S113000010C01DC01CC032C01AC019C0EEC017C039
S113001016C015C014C013C012C011C010C00FC048
S11300200EC011241FBECFEDCDBF20E0A0E6B0E08E
S113003001C01D92A936B207E1F702D130C1E0CF69
S113004083B7816083BF80B7836080BF80B78068D7
S113005080BF87E386BF08958EB582608EBD1DBCC8
S11300601CBC8FEF8BBD8ABD619A08951F920F92BD
S11300700FB60F9211242F933F934F935F936F9377
S11300807F938F939F93AF93BF93CF93DF93EF931C
S1130090FF9386B3809362002CB53DB580916200D6
S11300A08170809364008091620086958170809352
S11300B063009091630080916500981799F01DBCCE
S11300C01CBC83E08BBD88EE8ABD81E08093600018
S11300D0109261001092670010926600DB9880B560
S11300E0816080BD8091640090916800891709F453
S11300F061C090916000923009F05CC0D32F90E011
S1130100C92FC20FD11D882309F447C08091610013
S1130110811105C0D0936700C09366004BC0609105
S11301206600709167006C0F7D1FCB01A0E0B0E00A
S1130130880F991FAA1FBB1F880F991FAA1FBB1FD7
S1130140880F991FAA1FBB1F880F991FAA1FBB1FC7
S1130150880F991FAA1FBB1F880F991FAA1FBB1FB7
S1130160BC01CD01660F771F881F991F20EB36E372
S113017040E050E072D026BF80916300882319F0DC
S113018086B7809586BFDB98DF98D0936700C093CD
S1130190660080B58E7F80BD0DC080916600909111
S11301A0670080579E4FC817D90720F0DB9A81E07B
S11301B08093610080916300809365008091640066
S11301C080936800FF91EF91DF91CF91BF91AF9140
S11301D09F918F917F916F915F914F913F912F915B
S11301E00F900FBE0F901F9018951F920F920FB68D
S11301F00F9211248F931DBC1CBC80916000813030
S113020041F48AE38BBD88E98ABD82E08093600073
S11302100AC080916000823031F4109260008091B5
S113022061008111DF9A8F910F900FBE0F901F9084
S113023018958BB780628BBF80B5836080BD0895AD
S1130240B898B998BA9AC298D39AD79ADB98DF9893
S11302507894F6DE01DFEDDFFFCFA1E21A2EAA1BB0
S1130260BB1BFD010DC0AA1FBB1FEE1FFF1FA21762
S1130270B307E407F50720F0A21BB30BE40BF50B5F
S1130280661F771F881F991F1A9469F760957095E8
S1130290809590959B01AC01BD01CF010895F89420
S10502A0FFCF8A
S9030000FC
