:100000000C942A000C943C000C943C000C943C0092
:100010000C943C000C943C000C943C000C943C0070
:100020000C943C000C943C000C943E000C943C005E
:100030000C943C000C943C000C943C000C943C0050
:100040000C9451000C943C000C943C000C943C002B
:100050000C943C0011241FBECFE5D8E0DEBFCDBF1D
:1000600020E0A0E6B0E001C01D92A236B207E1F7A1
:100070000E946C000C94A4000C9400001F920F923C
:100080000FB60F9211240F900FBE0F901F9018956E
:10009000379A87B117B887B117B8339A0895369A47
:1000A00008951F920F920FB60F9211242F933F9332
:1000B0008F939F9324B135B1932F80E0822B90933F
:1000C0006100809360009F918F913F912F910F90DD
:1000D0000FBE0F901F90189578940E9448008FEFE4
:1000E00081BB83E084BB1ABA12BACFEFDFEFD093A3
:1000F0006100C09360000E944F0080916000909169
:1001000061000196D1F38091600090916100992384
:100110000CF40396959587959595879582BB80916C
:1001200060009091610081FF02C0A99A02C085B36E
:1001300015BA809160009091610080FF02C0A89A7A
:0C014000D6CF85B315BAD3CFF894FFCF0B
:00000001FF
