S011000046726571436F756E742E737265637C
S113000010C028C027C031C025C024C042C122C0AE
S113001021C020C01FC01EC01DC01CC01BC01AC0F0
S113002019C011241FBECFEDCDBF10E0A0E6B0E093
S1130030E4E8F6E002C005900D92AA36B107D9F7BC
S113004020E0AAE6B0E001C01D92A038B207E1F7B3
S11300504CD116C3D5CF8EB581608EBD1DBC1CBCE2
S11300608FEF8BBD8ABD619A08951F920F920FB6D0
S11300700F9211244F925F926F927F928F929F9270
S1130080AF92BF92CF92DF92EF92FF922F933F9362
S11300904F935F936F937F938F939F93AF93BF938C
S11300A0EF93FF93CF93DF93CDB7DD27C450CDBF3C
S11300B086B380937F008CB56DB570E0762F66278C
S11300C0680F711D80917F0082FFAEC08091760021
S11300D0882309F4A5C080917B0090917C00A091B5
S11300E07D00B0917E00DC0199278827860F971F39
S11300F0A11DB11D8032914AA740B10508F47CC00E
S11301001DBC1CBC8090660090906700A0906800A5
S1130110B090690040907B0050907C0060907D001E
S113012070907E00C0906200D0906300E090640004
S1130130F090650080E090E0AAD1A501940135D249
S113014069837A838B839C83C301B201A0D1A70105
S113015096012BD29B01AC0169817A818B819C81B0
S1130160CAD069837A838B839C8360917700709172
S113017078008091790090917A0089D129813A811F
S11301804B815C811CD160936E0070936F008093EF
S113019070009093710060916000709161004090D4
S11301A0720050907300609074007090750080E04D
S11301B090E06DD19B01AC01C501B401F6D14B01B6
S11301C05C01C301B20163D19B01AC01C701B6015B
S11301D0ECD19B01AC01C501B4018DD029813A81D8
S11301E04B815C81ECD060936A0070936B008093C8
S11301F06C0090936D002CC08091770090917800F2
S1130200A0917900B0917A000196A11DB11D80934F
S1130210770090937800A0937900B0937A0018C087
S113022081E08093760014C0709361006093600055
S113023080917B0090917C00A0917D00B0917E0024
S11302408093720090937300A0937400B093750030
S1130250CC5FCDBFDF91CF91FF91EF91BF91AF9173
S11302609F918F917F916F915F914F913F912F91CA
S1130270FF90EF90DF90CF90BF90AF909F908F90C2
S11302807F906F905F904F900F900FBE0F901F90D4
S113029018951F920F920FB60F9211248F939F936C
S11302A0AF93BF9380917B0090917C00A0917D00DF
S11302B0B0917E000196A11DB11D80937B009093A7
S11302C07C00A0937D00B0937E00BF91AF919F917D
S11302D08F910F900FBE0F901F9018958BB780626F
S11302E08BBF80B5846080BD0895BA987894B3DEDE
S11302F0F5DFFFCF5058BB27AA270ED01CC10DD164
S113030030F012D120F031F49F3F11F41EF402C1F9
S11303100EF4E095E7FBF8C0E92F1ED180F3BA177D
S1130320620773078407950718F071F49EF536C1C8
S11303300EF4E0950B2EBA2FA02D0B01B9019001FC
S11303400C01CA01A0011124FF27591B99F0593F40
S113035050F4503E68F11A16F040A22F232F342F88
S11303604427585FF3CF469537952795A795F040D6
S11303705395C9F77EF41F16BA0B620B730B840BEB
S1130380BAF09150A1F0FF0FBB1F661F771F881FA3
S1130390C2F70EC0BA0F621F731F841F48F48795FB
S11303A077956795B795F7959E3F08F0B3CF9395EA
S11303B0880F08F09927EE0F9795879508950CD02C
S11303C0BAC0B2D040F0A9D030F021F45F3F19F0A8
S11303D09BC05111E4C09EC0BFD098F39923C9F3C8
S11303E05523B1F3951B550BBB27AA276217730737
S11303F0840738F09F5F5F4F220F331F441FAA1FEB
S1130400A9F333D00E2E3AF0E0E830D091505040AA
S1130410E695001CCAF729D0FE2F27D0660F771F58
S1130420881FBB1F261737074807AB07B0E809F03A
S1130430BB0B802DBF01FF2793585F4F2AF09E3FCF
S1130440510568F061C0ABC05F3FECF3983EDCF34C
S1130450869577956795B795F7959F5FC9F7880F48
S1130460911D9695879597F90895E1E0660F771F9A
S1130470881FBB1F621773078407BA0720F0621B2B
S1130480730B840BBA0BEE1F88F7E0950895E8947C
S113049009C097FB3EF490958095709561957F4FC8
S11304A08F4F9F4F9923A9F0F92F96E9BB27939576
S11304B0F695879577956795B795F111F8CFFAF486
S11304C0BB0F11F460FF1BC06F5F7F4F8F4F9F4FB7
S11304D016C0882311F096E911C0772321F09EE815
S11304E0872F762F05C0662371F096E8862F70E07B
S11304F060E02AF09A95660F771F881FDAF7880F55
S11305009695879597F9089597F99F6780E870E025
S113051060E008959FEF80EC089500240A94161675
S1130520170618060906089500240A9412161306DD
S1130530140605060895092E0394000C11F488236B
S113054052F0BB0F40F4BF2B11F460FF04C06F5F87
S11305507F4F8F4F9F4F089557FD9058440F551F5D
S113056059F05F3F71F04795880F97FB991F61F031
S11305709F3F79F087950895121613061406551FA8
S1130580F2CF4695F1DF08C0161617061806991F14
S1130590F1CF86957105610508940895E894BB2709
S11305A066277727CB0197F908950AD0C4CFB5DF22
S11305B028F0BADF18F0952309F0A6CFABCFEFCF20
S11305C0CBDFA8F39923D9F35523C9F3950F50E052
S11305D0551FAA27EE27FF27BB27002408946795F9
S11305E020F4E20FF31FB41F0A1E220F331F441F0F
S11305F0AA1F6695A9F7779530F4F30FB41F0A1E66
S1130600121E08F46395330F441FAA1F221F769508
S113061099F7879520F4B40F0A1E121E631F440F26
S1130620AA1F221F331F8695A9F7862F712D602DCF
S113063011249F5750408AF0E1F088234AF0EE0FCE
S1130640FF1FBB1F661F771F881F91505040A9F7DB
S11306509E3F510570F058CFA2CF5F3FECF3983E18
S1130660DCF3869577956795B795F795E7959F5F42
S1130670C1F7FE2B880F911D9695879597F90895DC
S1070680F894FFCF18
S10D0684393095BF563B95BF56333D
S9030000FC
