:1000000010C02AC029C077C027C026C025C024C080
:1000100033C122C021C020C01FC01EC01DC01CC0D3
:100020001BC011241FBECFE5D2E0DEBFCDBF10E064
:10003000A0E6B0E0EEE9FAE002C005900D92AC3621
:10004000B107D9F720E0ACE6B0E001C01D92A338BB
:10005000B207E1F736D121C5D3CF0F93CF93DF930A
:100060000F7DE1E0F0E00D3439F49FEF940F02C012
:10007000EE0FFF1F9A95E2F7A1E0B0E0ED0102C09C
:10008000CC0FDD1F6A95E2F7BE015C2F6095ED0194
:1000900002C0CC0FDD1F8A95E2F7CE017C2F709550
:1000A0004423C9F0DF01A223B3239BB3AB2B11F090
:1000B000952B01C096239BBB9BB397239BBB9BB304
:1000C000982B9BBB0D3419F4F695E79502C0EE0F03
:1000D000FF1F4150E5CFDF91CF910F9108958EB56D
:1000E00081608EBD609A08958BB780628BBF80B5AA
:1000F000846080BD08951F920F920FB60F92112455
:100100008F929F92AF92BF92CF92DF92EF92FF9227
:100110002F933F934F935F936F937F938F939F930F
:10012000AF93BF93EF93FF9336B32CB5CDB48091CB
:10013000770090917800A0917900B0917A0032FD1B
:1001400082C0D12CDC2CCC24C20ED11C21E0209307
:100150007C0020917500309176002F5F3F4F3093E7
:10016000760020937500E12CF12CDC01992788277B
:100170008C0D9D1DAE1DBF1D80349244AF40B10556
:1001800028F480917B00813009F051C01DBC86E2CB
:100190008CBD609175007091760080E090E05CD33A
:1001A0004B015C01C701B60157D325E93FEB46E59A
:1001B00053E308D46B017C01609177007091780063
:1001C0008091790090917A0047D325E93FEB46E58D
:1001D0005BE3F8D39B01AC01C701B60141D29B019F
:1001E000AC01C501B401A4D29B01AC0160937000C5
:1001F00070937100809372009093730060E070E0E0
:1002000080E89FE395D260936C0070936D008093BB
:100210006E0090936F00109276001092750010920D
:100220007700109278001092790010927A008091F5
:100230007B00813021F482E080937B0004C0823017
:1002400011F410927B00FF91EF91BF91AF919F91BC
:100250008F917F916F915F914F913F912F91FF907F
:10026000EF90DF90CF90BF90AF909F908F900F90C6
:100270000FBE0F901F9018951F920F920FB60F92FE
:1002800011248F939F93AF93BF93809177009091A8
:100290007800A0917900B0917A000196A11DB11D5E
:1002A0008093770090937800A0937900B0937A00C0
:1002B000BF91AF919F918F910F900FBE0F901F90A4
:1002C0001895CF93DF9300D000D000D0CDB7DEB724
:1002D000BA98D39AD59AD49ADB98DD98DC9878941A
:1002E000FEDE02DF212C312C1B821C82E12CD12C62
:1002F000C12C712C412C512C1A821982A12CB12CA9
:1003000080917C00811110926A0080916A008111B5
:1003100045C126E0A216B10408F40BC180917B0010
:1003200081115AC08090700090907100A09072006E
:10033000B090730010917400812F880F21E030E09D
:1003400040E050E004C0220F331F441F551F8A9520
:10035000D2F7CA01B90180D21B012C019B01AC016B
:10036000C501B4012FD3E62ED72EC82E792EA201B7
:10037000910160916C0070916D0080916E00909180
:100380006F00D6D11B018B839C8320E030E44CE1CD
:1003900056E4C501B40112D3181644F4163030F4F3
:1003A0001F5F1093740081E080937B008091770041
:1003B00090917800A0917900B0917A00892B8A2BD6
:1003C0008B2B51F080917400882331F08150809301
:1003D000740081E080937B0020E034E244E759E43C
:1003E0006E2D7D2D8C2D972DE9D287FD10C020E03C
:1003F00034E244E759E46E2D7D2D8C2D972D98D154
:100400006E83172F082FF92E412C512C33C020E07A
:1004100030E040E85FE36E2D7D2D8C2D972DCED200
:1004200087FF1AC020E030E040E752E4B1018B8141
:100430009C817AD11816BCF420E030E040E752E409
:10044000B1018B819C8174D16E83172F082FF92EF7
:1004500033E0432E512C0EC0EE828601F72C44244B
:100460004394512C07C02E82132D0B81FC8092E007
:10047000492E512C812C84E2982E84E7A82E89E401
:10048000B82E3FEF3D83A50194016E81712F802F1F
:100490009F2D94D287FD03C04D814F3F21F05D8198
:1004A0005630C0F501C01D82A50194016E81712FE7
:1004B000802F9F2D3DD1A4D1662E70E080E090E08A
:1004C000CBD1A50194017ED29B01AC016E81712F2D
:1004D000802F9F2DC4D06E83172F082FF92EE62D65
:1004E000F0E0E05AFF4F608020E030E040E85FE35A
:1004F000C501B40119D19D81E92FF0E0E358FF4F08
:10050000882311F0608203C0862D80688083ED818E
:10051000EF5FED8320E030E040E251E4C501B4013B
:1005200007D14B015C01FD81F63009F0ACCFA12C65
:10053000B12C21E030E00A2C02C0220F331F0A94B4
:10054000E2F70DE648E063E085E087DD2091740086
:1005500030E044E063E085E080DD21E030E0042C21
:1005600002C0220F331F0A94E2F744E063E085E003
:1005700074DDF501E358FF4F208130E048E063E08F
:1005800085E06BDDDC98DC9A8FE097E20197F1F76C
:1005900000C000009FEFA91AB90AB2CEE981FA8122
:1005A000389728F0FFEFAF1ABF0A1A82198226E0A7
:1005B000A216B10428F03FEF431A530AA12CB12C24
:1005C00044E04416510410F0412C512C0DE620E07B
:1005D00030E042E063E085E040DD21E030E00A2CDD
:1005E00002C0220F331F0A94E2F746E063E085E081
:1005F00034DD20E030E041E063E085E02EDD209155
:10060000740030E043E063E085E027DD21E030E086
:10061000042C02C0220F331F0A94E2F744E063E087
:1006200085E01BDD21E030E0098002C0220F331F8E
:100630000A94E2F748E063E085E00FDDDC98DC9A9D
:100640005FE38DE093E0515080409040E1F700C0BF
:100650000000E981FA813196FA83E98351CE50583E
:10066000BB27AA270ED070C161D130F066D120F02F
:1006700031F49F3F11F41EF456C10EF4E095E7FBF0
:100680004CC1E92F72D180F3BA1762077307840750
:10069000950718F071F49EF58AC10EF4E0950B2EC3
:1006A000BA2FA02D0B01B90190010C01CA01A001C4
:1006B0001124FF27591B99F0593F50F4503E68F11F
:1006C0001A16F040A22F232F342F4427585FF3CF60
:1006D000469537952795A795F0405395C9F77EF431
:1006E0001F16BA0B620B730B840BBAF09150A1F07A
:1006F000FF0FBB1F661F771F881FC2F70EC0BA0F00
:10070000621F731F841F48F4879577956795B79587
:10071000F7959E3F08F0B3CF9395880F08F099277F
:10072000EE0F979587950895D4D008F481E0089549
:100730000CD00AC102D140F0F9D030F021F45F3F73
:1007400019F0EBC0511134C1EEC00FD198F39923C9
:10075000C9F35523B1F3951B550BBB27AA27621785
:100760007307840738F09F5F5F4F220F331F441FCA
:10077000AA1FA9F333D00E2E3AF0E0E830D0915002
:100780005040E695001CCAF729D0FE2F27D0660FEF
:10079000771F881FBB1F261737074807AB07B0E82E
:1007A00009F0BB0B802DBF01FF2793585F4F2AF044
:1007B0009E3F510568F0B1C0FBC05F3FECF3983E2F
:1007C000DCF3869577956795B795F7959F5FC9F7A1
:1007D000880F911D9695879597F90895E1E0660F2A
:1007E000771F881FBB1F621773078407BA0720F0A3
:1007F000621B730B840BBA0BEE1F88F7E09508950C
:10080000BCD088F09F5790F0B92F9927B751A0F02E
:10081000D1F0660F771F881F991F1AF0BA95C9F794
:1008200012C0B13081F0C3D0B1E00895C0C0672FCD
:10083000782F8827B85F39F0B93FCCF38695779544
:100840006795B395D9F73EF490958095709561952D
:100850007F4F8F4F9F4F0895E89409C097FB3EF458
:1008600090958095709561957F4F8F4F9F4F9923FD
:10087000A9F0F92F96E9BB279395F695879577957B
:100880006795B795F111F8CFFAF4BB0F11F460FF3B
:100890001BC06F5F7F4F8F4F9F4F16C0882311F093
:1008A00096E911C0772321F09EE8872F762F05C0A7
:1008B000662371F096E8862F70E060E02AF09A9542
:1008C000660F771F881FDAF7880F9695879597F937
:1008D0000895990F0008550FAA0BE0E8FEEF1616D1
:1008E0001706E807F907C0F012161306E407F50724
:1008F00098F0621B730B840B950B39F40A2661F098
:10090000232B242B252B21F408950A2609F4A1403A
:10091000A6958FEF811D811D089597F99F6780E847
:1009200070E060E008959FEF80EC089500240A9441
:100930001616170618060906089500240A941216BA
:100940001306140605060895092E0394000C11F4ED
:10095000882352F0BB0F40F4BF2B11F460FF04C09A
:100960006F5F7F4F8F4F9F4F089557FD9058440FF3
:10097000551F59F05F3F71F04795880F97FB991FFE
:1009800061F09F3F79F087950895121613061406BB
:10099000551FF2CF4695F1DF08C016161706180648
:1009A000991FF1CF86957105610508940895E89423
:1009B000BB2766277727CB0197F908958ADF08F4CC
:1009C0008FEF08950AD0C0CFB1DF28F0B6DF18F05E
:1009D000952309F0A2CFA7CFEBCFC7DFA8F39923C8
:1009E000D9F35523C9F3950F50E0551FAA27EE27D9
:1009F000FF27BB2700240894679520F4E20FF31F1C
:100A0000B41F0A1E220F331F441FAA1F6695A9F7A1
:100A1000779530F4F30FB41F0A1E121E08F4639585
:100A2000330F441FAA1F221F769599F7879520F44C
:100A3000B40F0A1E121E631F440FAA1F221F331F6A
:100A40008695A9F7862F712D602D11249F57504050
:100A50008AF0E1F088234AF0EE0FFF1FBB1F661FEC
:100A6000771F881F91505040A9F79E3F510570F0A5
:100A700054CF9ECF5F3FECF3983EDCF3869577959D
:100A80006795B795F795E7959F5FC1F7FE2B880FA0
:0E0A9000911D9695879597F90895F894FFCFDC
:0C0A9E003F065B4F666D7D077F6701001F
:00000001FF
