:1000000010C02AC029C077C027C026C025C024C080
:1000100022C122C021C020C01FC01EC01DC01CC0E4
:100020001BC011241FBECFE5D2E0DEBFCDBF10E064
:10003000A0E6B0E0E8E9F9E002C005900D92AA362A
:10004000B107D9F720E0AAE6B0E001C01D92A038C0
:10005000B207E1F725D19EC4D3CF0F93CF93DF939F
:100060000F7DE1E0F0E00D3439F49FEF940F02C012
:10007000EE0FFF1F9A95E2F7A1E0B0E0ED0102C09C
:10008000CC0FDD1F6A95E2F7BE015C2F6095ED0194
:1000900002C0CC0FDD1F8A95E2F7CE017C2F709550
:1000A0004423C9F0DF01A223B3239BB3AB2B11F090
:1000B000952B01C096239BBB9BB397239BBB9BB304
:1000C000982B9BBB0D3419F4F695E79502C0EE0F03
:1000D000FF1F4150E5CFDF91CF910F9108958EB56D
:1000E00081608EBD609A08958BB780628BBF80B5AA
:1000F000846080BD08951F920F920FB60F92112455
:100100008F929F92AF92BF92CF92DF92EF92FF9227
:100110002F933F934F935F936F937F938F939F930F
:10012000AF93BF93EF93FF9396B38CB5CDB492FD8D
:1001300079C0D12CDC2CCC24C80ED11C81E080935A
:1001400079008091730090917400019690937400EF
:1001500080937300E12CF12C8091750090917600D2
:10016000A0917700B0917800DC01992788278C0D49
:100170009D1DAE1DBF1D80349244AF40B10508F4F3
:1001800051C01DBC86E28CBD6091730070917400FB
:1001900080E090E0DED24B015C01C701B601D9D20C
:1001A00025E93FEB46E553E38AD36B017C0160917F
:1001B0007500709176008091770090917800C9D297
:1001C00025E93FEB46E55BE37AD39B01AC01C70130
:1001D000B601C3D19B01AC01C501B40126D29B017C
:1001E000AC0160936E0070936F00809370009093E9
:1001F000710060E070E080E89FE317D260936A00CE
:1002000070936B0080936C0090936D00109274005B
:100210001092730010927500109276001092770081
:1002200010927800FF91EF91BF91AF919F918F91C4
:100230007F916F915F914F913F912F91FF90EF9040
:10024000DF90CF90BF90AF909F908F900F900FBE98
:100250000F901F9018951F920F920FB60F921124B6
:100260008F939F93AF93BF93809175009091760089
:10027000A0917700B09178000196A11DB11D8093E7
:10028000750090937600A0937700B0937800BF91AB
:10029000AF919F918F910F900FBE0F901F90189567
:1002A000BA98D39AD59AD49ADB98DD98DC9878944A
:1002B00016DF1ADFC0E0D0E0C12CD12CE12CF12CEC
:1002C000AA24A394B12C80917900882309F4EBC06F
:1002D00026E0E216F10408F4B3C010916E0000911C
:1002E0006F00F0907000E090710080906A00909034
:1002F0006B00D0916C00C0916D0020E034E244E7C7
:1003000059E4612F702F8F2D9E2DD5D287FD10C0FF
:1003100020E034E244E759E4612F702F8F2D9E2DA9
:1003200084D1162F072FF82EE92EC0E0D0E02CC084
:1003300020E030E040E85FE3612F702F8F2D9E2D8D
:10034000BAD287FF19C020E030E040E752E4B401A0
:100350008D2F9C2F66D1181694F420E030E040E7F2
:1003600052E4B4018D2F9C2F60D1162F072FF82E49
:10037000E92EC3E0D0E008C0C1E0D0E005C0182DF0
:10038000092D7E01C2E0D0E0412C84E2582E84E7A2
:10039000682E89E4782E99249A94A3019201612F02
:1003A000702F8F2D9E2D87D287FD03C08FEF98165B
:1003B00021F095E09915B0F101C0912C292C312C38
:1003C000A3019201612F702F8F2D9E2D2ED195D1DB
:1003D000862E70E080E090E0BCD1A30192016FD244
:1003E0009B01AC01612F702F8F2D9E2DB5D0162F44
:1003F000072FF82EE92EE82DF0E0E05AFF4F80801D
:1004000020E030E040E85FE3C301B2010AD1F1012E
:10041000E658FF4F882311F0808203C0882D806842
:100420008083939420E030E040E251E4C301B201C4
:10043000FCD02B013C0126E09212AFCFE12CF12C35
:1004400095010E2C02C0220F331F0A94E2F70DE62D
:1004500048E063E085E001DE2091720030E044E096
:1004600063E085E0FADD95010C2E02C0220F331FF8
:100470000A94E2F744E063E085E0EFDDF701E65837
:10048000FF4F208130E048E063E085E0E6DDDC9866
:10049000DC9A8FE097E20197F1F700C000009FEF30
:1004A000E91AF90A10CF28E0C216D10428F08FEF1C
:1004B000E81AF80AC12CD12C96E0E916F10418F0DC
:1004C0002196E12CF12CC430D10510F0C0E0D0E031
:1004D0000DE620E030E042E063E085E0BEDD95011E
:1004E0000E2C02C0220F331F0A94E2F746E063E0AD
:1004F00085E0B3DD20E030E041E063E085E0ADDDA4
:100500002091720030E043E063E085E0A6DD9501D4
:100510000C2E02C0220F331F0A94E2F744E063E07E
:1005200085E09BDD95010C2C02C0220F331F0A943D
:10053000E2F748E063E085E090DDDC98DC9A9FE339
:100540002DE083E0915020408040E1F700C00000A2
:100550009FEFC91AD90AB7CE5058BB27AA270ED089
:1005600070C161D130F066D120F031F49F3F11F4B9
:100570001EF456C10EF4E095E7FB4CC1E92F72D191
:1005800080F3BA17620773078407950718F071F4B0
:100590009EF58AC10EF4E0950B2EBA2FA02D0B010B
:1005A000B90190010C01CA01A0011124FF27591BB8
:1005B00099F0593F50F4503E68F11A16F040A22FBE
:1005C000232F342F4427585FF3CF4695379527952F
:1005D000A795F0405395C9F77EF41F16BA0B620B2E
:1005E000730B840BBAF09150A1F0FF0FBB1F661F75
:1005F000771F881FC2F70EC0BA0F621F731F841FB8
:1006000048F4879577956795B795F7959E3F08F0DD
:10061000B3CF9395880F08F09927EE0F979587959C
:100620000895D4D008F481E008950CD00AC102D115
:1006300040F0F9D030F021F45F3F19F0EBC05111D8
:1006400034C1EEC00FD198F39923C9F35523B1F308
:10065000951B550BBB27AA2762177307840738F031
:100660009F5F5F4F220F331F441FAA1FA9F333D090
:100670000E2E3AF0E0E830D091505040E695001C44
:10068000CAF729D0FE2F27D0660F771F881FBB1F00
:10069000261737074807AB07B0E809F0BB0B802DDA
:1006A000BF01FF2793585F4F2AF09E3F510568F026
:1006B000B1C0FBC05F3FECF3983EDCF386957795C5
:1006C0006795B795F7959F5FC9F7880F911D969528
:1006D000879597F90895E1E0660F771F881FBB1F84
:1006E000621773078407BA0720F0621B730B840B31
:1006F000BA0BEE1F88F7E0950895BCD088F09F579D
:1007000090F0B92F9927B751A0F0D1F0660F771F5D
:10071000881F991F1AF0BA95C9F712C0B13081F03D
:10072000C3D0B1E00895C0C0672F782F8827B85F85
:1007300039F0B93FCCF3869577956795B395D9F79E
:100740003EF490958095709561957F4F8F4F9F4FA8
:100750000895E89409C097FB3EF4909580957095B4
:1007600061957F4F8F4F9F4F9923A9F0F92F96E9FD
:10077000BB279395F695879577956795B795F11172
:10078000F8CFFAF4BB0F11F460FF1BC06F5F7F4F0F
:100790008F4F9F4F16C0882311F096E911C0772321
:1007A00021F09EE8872F762F05C0662371F096E82A
:1007B000862F70E060E02AF09A95660F771F881FF9
:1007C000DAF7880F9695879597F90895990F00089D
:1007D000550FAA0BE0E8FEEF16161706E807F90713
:1007E000C0F012161306E407F50798F0621B730BAE
:1007F000840B950B39F40A2661F0232B242B252B2F
:1008000021F408950A2609F4A140A6958FEF811DD1
:10081000811D089597F99F6780E870E060E0089572
:100820009FEF80EC089500240A9416161706180608
:100830000906089500240A941216130614060506E4
:100840000895092E0394000C11F4882352F0BB0F75
:1008500040F4BF2B11F460FF04C06F5F7F4F8F4FD8
:100860009F4F089557FD9058440F551F59F05F3F13
:1008700071F04795880F97FB991F61F09F3F79F0C2
:1008800087950895121613061406551FF2CF469544
:10089000F1DF08C0161617061806991FF1CF8695C6
:1008A0007105610508940895E894BB2766277727AA
:1008B000CB0197F908958ADF08F48FEF08950AD0E5
:1008C000C0CFB1DF28F0B6DF18F0952309F0A2CF32
:1008D000A7CFEBCFC7DFA8F39923D9F35523C9F3EB
:1008E000950F50E0551FAA27EE27FF27BB270024AE
:1008F0000894679520F4E20FF31FB41F0A1E220F1D
:10090000331F441FAA1F6695A9F7779530F4F30F9C
:10091000B41F0A1E121E08F46395330F441FAA1F4A
:10092000221F769599F7879520F4B40F0A1E121EA0
:10093000631F440FAA1F221F331F8695A9F7862F16
:10094000712D602D11249F5750408AF0E1F08823CB
:100950004AF0EE0FFF1FBB1F661F771F881F9150C5
:100960005040A9F79E3F510570F054CF9ECF5F3F96
:10097000ECF3983EDCF3869577956795B795F795F8
:10098000E7959F5FC1F7FE2B880F911D9695879580
:0809900097F90895F894FFCFD8
:0A0998003F065B4F666D7D077F6729
:00000001FF
