:1000000010C02AC029C077C027C026C025C024C080
:1000100023C122C021C020C01FC01EC01DC01CC0E3
:100020001BC011241FBECFE5D2E0DEBFCDBF10E064
:10003000A0E6B0E0E4EAF9E002C005900D92AC362B
:10004000B107D9F720E0ACE6B0E001C01D92A238BC
:10005000B207E1F726D1A4C4D3CF0F93CF93DF9398
:100060000F7DE1E0F0E00D3439F49FEF940F02C012
:10007000EE0FFF1F9A95E2F7A1E0B0E0ED0102C09C
:10008000CC0FDD1F6A95E2F7BE015C2F6095ED0194
:1000900002C0CC0FDD1F8A95E2F7CE017C2F709550
:1000A0004423C9F0DF01A223B3239BB3AB2B11F090
:1000B000952B01C096239BBB9BB397239BBB9BB304
:1000C000982B9BBB0D3419F4F695E79502C0EE0F03
:1000D000FF1F4150E5CFDF91CF910F9108958EB56D
:1000E00081608EBD609A08958BB780628BBF80B5AA
:1000F000846080BD08951F920F920FB60F92112455
:100100008F929F92AF92BF92CF92DF92EF92FF9227
:100110002F933F934F935F936F937F938F939F930F
:10012000AF93BF93EF93FF9336B32CB5CDB48091CB
:10013000770090917800A0917900B0917A0032FD1B
:1001400072C0D12CDC2CCC24C20ED11C21E0209317
:100150007B0020917500309176002F5F3F4F3093E8
:10016000760020937500E12CF12CDC01992788277B
:100170008C0D9D1DAE1DBF1D80349244AF40B10556
:1001800008F451C01DBC86E28CBD60917500709171
:10019000760080E090E0E3D24B015C01C701B6013C
:1001A000DED225E93FEB46E553E38FD36B017C01BB
:1001B00060917700709178008091790090917A0039
:1001C000CED225E93FEB46E55BE37FD39B01AC0153
:1001D000C701B601C8D19B01AC01C501B4012BD246
:1001E0009B01AC016093700070937100809372006A
:1001F0009093730060E070E080E89FE31CD260930E
:100200006C0070936D0080936E0090936F0010925D
:10021000760010927500109277001092780010927C
:10022000790010927A00FF91EF91BF91AF919F9169
:100230008F917F916F915F914F913F912F91FF909F
:10024000EF90DF90CF90BF90AF909F908F900F90E6
:100250000FBE0F901F9018951F920F920FB60F921E
:1002600011248F939F93AF93BF93809177009091C8
:100270007800A0917900B0917A000196A11DB11D7E
:100280008093770090937800A0937900B0937A00E0
:10029000BF91AF919F918F910F900FBE0F901F90C4
:1002A0001895BA98D39AD59AD49ADB98DD98DC98A9
:1002B000789415DF19DFA12CB12C212C312CE12CE5
:1002C000F12CC1E0D0E080917B00811110926A0096
:1002D00080916A008111EAC026E0E216F10408F478
:1002E000B2C080917400880F21E030E040E050E01F
:1002F00004C0220F331F441F551F8A95D2F7CA012D
:10030000B9012DD24B015C01209170003091710038
:100310004091720050917300D8D26B017C014090E3
:100320006C0050906D0060906E0070906F0020E047
:1003300034E244E759E4C5D287FD0CC020E034E242
:1003400044E759E4C701B60176D16B017C01A12CC9
:10035000B12C2BC020E030E040E85FE3C701B601DC
:10036000B0D287FF1BC0A5019401C301B20163D1C4
:100370006B017C0120E030E040E752E458D11816D0
:100380008CF420E030E040E752E4C701B60153D1DD
:100390006B017C0133E0A32EB12C07C0AA24A394E7
:1003A000B12C03C092E0A92EB12C412C84E2582E2E
:1003B00084E7682E89E4782E1FEFA3019201C7011C
:1003C000B6017FD287FD02C01F3F19F0163068F5D5
:1003D00001C010E0812E912CA3019201C701B6014A
:1003E0002AD191D1062F70E080E090E0B8D1A3012E
:1003F00092016BD29B01AC01C701B601B3D06B0176
:100400007C01E02FF0E0E05AFF4F008120E030E077
:1004100040E85FE3C301B2010AD1F401E458FF4FA1
:10042000811101C0006800831F5F20E030E040E2DE
:1004300051E4C301B201FFD02B013C01163009F099
:10044000BCCFE12CF12C9E010E2C02C0220F331FD9
:100450000A94E2F70DE648E063E085E0FEDD2091D6
:10046000740030E044E063E085E0F7DD9E010A2C93
:1004700002C0220F331F0A94E2F744E063E085E0F4
:10048000ECDDF701E458FF4F208130E048E063E005
:1004900085E0E3DDDC98DC9A8FE097E20197F1F7E5
:1004A00000C000009FEFE91AF90A0DCF28E02216DC
:1004B000310428F03FEFE31AF30A212C312C46E0F7
:1004C000E416F10428F05FEFA51AB50AE12CF12C2F
:1004D00084E0A816B10410F0A12CB12C0DE620E0A8
:1004E00030E042E063E085E0B8DD9E010E2C02C002
:1004F000220F331F0A94E2F746E063E085E0ADDDAA
:1005000020E030E041E063E085E0A7DD2091740069
:1005100030E043E063E085E0A0DD9E010A2C02C0EC
:10052000220F331F0A94E2F744E063E085E095DD93
:100530009E01022C02C0220F331F0A94E2F748E00A
:1005400063E085E08ADDDC98DC9A9FE32DE033E010
:10055000915020403040E1F700C000004FEF241AD6
:10056000340AB1CE5058BB27AA270ED070C161D132
:1005700030F066D120F031F49F3F11F41EF456C1E3
:100580000EF4E095E7FB4CC1E92F72D180F3BA1766
:10059000620773078407950718F071F49EF58AC106
:1005A0000EF4E0950B2EBA2FA02D0B01B90190018E
:1005B0000C01CA01A0011124FF27591B99F0593FD2
:1005C00050F4503E68F11A16F040A22F232F342F1A
:1005D0004427585FF3CF469537952795A795F04068
:1005E0005395C9F77EF41F16BA0B620B730B840B7D
:1005F000BAF09150A1F0FF0FBB1F661F771F881F35
:10060000C2F70EC0BA0F621F731F841F48F487958C
:1006100077956795B795F7959E3F08F0B3CF93957B
:10062000880F08F09927EE0F979587950895D4D0F5
:1006300008F481E008950CD00AC102D140F0F9D04D
:1006400030F021F45F3F19F0EBC0511134C1EEC01E
:100650000FD198F39923C9F35523B1F3951B550B8B
:10066000BB27AA2762177307840738F09F5F5F4F85
:10067000220F331F441FAA1FA9F333D00E2E3AF0C6
:10068000E0E830D091505040E695001CCAF729D0E0
:10069000FE2F27D0660F771F881FBB1F261737072F
:1006A0004807AB07B0E809F0BB0B802DBF01FF275F
:1006B00093585F4F2AF09E3F510568F0B1C0FBC0D0
:1006C0005F3FECF3983EDCF3869577956795B79599
:1006D000F7959F5FC9F7880F911D9695879597F9B4
:1006E0000895E1E0660F771F881FBB1F621773072D
:1006F0008407BA0720F0621B730B840BBA0BEE1F42
:1007000088F7E0950895BCD088F09F5790F0B92FF6
:100710009927B751A0F0D1F0660F771F881F991F56
:100720001AF0BA95C9F712C0B13081F0C3D0B1E068
:100730000895C0C0672F782F8827B85F39F0B93F78
:10074000CCF3869577956795B395D9F73EF4909558
:100750008095709561957F4F8F4F9F4F0895E894D6
:1007600009C097FB3EF490958095709561957F4FF9
:100770008F4F9F4F9923A9F0F92F96E9BB279395A7
:10078000F695879577956795B795F111F8CFFAF4B7
:10079000BB0F11F460FF1BC06F5F7F4F8F4F9F4FE8
:1007A00016C0882311F096E911C0772321F09EE846
:1007B000872F762F05C0662371F096E8862F70E0AC
:1007C00060E02AF09A95660F771F881FDAF7880F86
:1007D0009695879597F90895990F0008550FAA0BDC
:1007E000E0E8FEEF16161706E807F907C0F0121644
:1007F0001306E407F50798F0621B730B840B950B47
:1008000039F40A2661F0232B242B252B21F408959B
:100810000A2609F4A140A6958FEF811D811D089538
:1008200097F99F6780E870E060E008959FEF80ECA3
:10083000089500240A941616170618060906089546
:1008400000240A9412161306140605060895092EAC
:100850000394000C11F4882352F0BB0F40F4BF2B1B
:1008600011F460FF04C06F5F7F4F8F4F9F4F08955B
:1008700057FD9058440F551F59F05F3F71F0479551
:10088000880F97FB991F61F09F3F79F08795089536
:10089000121613061406551FF2CF4695F1DF08C055
:1008A000161617061806991FF1CF86957105610572
:1008B00008940895E894BB2766277727CB0197F91A
:1008C00008958ADF08F48FEF08950AD0C0CFB1DF12
:1008D00028F0B6DF18F0952309F0A2CFA7CFEBCF11
:1008E000C7DFA8F39923D9F35523C9F3950F50E037
:1008F000551FAA27EE27FF27BB27002408946795DA
:1009000020F4E20FF31FB41F0A1E220F331F441FEF
:10091000AA1F6695A9F7779530F4F30FB41F0A1E46
:10092000121E08F46395330F441FAA1F221F7695E9
:1009300099F7879520F4B40F0A1E121E631F440F07
:10094000AA1F221F331F8695A9F7862F712D602DB0
:1009500011249F5750408AF0E1F088234AF0EE0FAF
:10096000FF1FBB1F661F771F881F91505040A9F7BC
:100970009E3F510570F054CF9ECF5F3FECF3983E01
:10098000DCF3869577956795B795F795E7959F5F23
:10099000C1F7FE2B880F911D9695879597F90895BD
:0409A000F894FFCFF9
:0C09A4003F065B4F666D7D077F6701001A
:00000001FF
