S02700004D6963726F636F6E74726F6C6C65722D42617365642053657175656E6365722E73726563E8
S11300000C948D000C94AA000C94AA000C94AA00E1
S11300100C94AA000C94AA000C94AA000C94AA00B4
S11300200C94AA000C94AA000C94AA000C94AA00A4
S11300300C94AA000C94AA000C94DE040C94AA005C
S11300400C94AA000C94AA000C94AA000C94AA0084
S11300500C94AA000C94AA000C94AA000C94AA0074
S11300600C94AA000C94AA00B6007302BB00C00052
S1130070C500CA00CF00D400D900DE00E300E800C8
S1130080ED00F200F700FC00010106010B01100174
S113009015011A011F01240129012E013301380120
S11300A03D01420147014C01510156015B016001D0
S11300B065016A016F01740179017E018301880180
S11300C08D01920197019C01A101A601AB01B00130
S11300D0B501BA01BF01C401C901CE01D301D801E0
S11300E0DD01E201E701EC01F101F601FB0100028F
S11300F005020A020F02140219021E022302280238
S11301002D02320237023C02410246024B025002E7
S113011055025A025F026402690211241FBECFEF26
S1130120D8E0DEBFCDBF11E0A0E0B1E0E6E4FDE041
S113013002C005900D92A230B107D9F723E0A2E0E6
S1130140B1E001C01D92A530B207E1F70E94470457
S11301500C94A1060C940000E82FF0E0E935F105B9
S113016008F0BCC1EC5CFF4F0C949B0673EA69E792
S11301709BEE8CE4BCC176EF64E199EE81E4B7C1F7
S113018070E161EF96EF81E4B2C173E160ED92E05A
S113019082E4ADC170E667E99AE082E4A8C177E140
S11301A065ED92E182E4A3C171E460E99BE182E43C
S11301B09EC174E560ED94E282E499C177E36DE950
S11301C09EE282E494C179E46FEF98E382E48FC104
S11301D07AE66FEF93E482E48AC170E067EA9FE411
S11301E082E485C170E060E09CE582E480C176EF42
S11301F064E199E682E47BC170E161EF96E782E411
S113020076C173E160ED92E882E471C170E667E95A
S11302109AE882E46CC177E165ED92E982E467C112
S113022071E460E99BE982E462C174E560ED94EAFB
S113023082E45DC177E36DE99EEA82E458C179E422
S11302406FEF98EB82E453C17AE66FEF93EC82E4AC
S11302504EC170E067EA9FEC82E449C170E060E05F
S11302609CED82E444C176EF64E199EE82E43FC1FF
S113027070E161EF96EF82E43AC173E160ED92E0E0
S113028083E435C170E667E99AE083E430C177E13D
S113029065ED92E183E42BC171E460E99BE183E4C1
S11302A026C174E560ED94E283E421C177E36DE94E
S11302B09EE283E41CC179E46FEF98E383E417C101
S11302C07AE66FEF93E483E412C170E067EA9FE497
S11302D083E40DC170E060E09CE583E408C176EF3F
S11302E064E199E683E403C170E161EF96E783E496
S11302F0FEC073E160ED92E883E4F9C070E667E95B
S11303009AE883E4F4C077E165ED92E983E4EFC011
S113031071E460E99BE983E4EAC074E560ED94EA82
S113032083E4E5C077E36DE99EEA83E4E0C079E421
S11303306FEF98EB83E4DBC07AE66FEF93EC83E432
S1130340D6C070E067EA9FEC83E4D1C070E060E05F
S11303509CED83E4CCC076EF64E199EE83E4C7C0FE
S113036070E161EF96EF83E4C2C073E160ED92E067
S113037084E4BDC070E667E99AE084E4B8C077E13C
S113038065ED92E184E4B3C071E460E99BE184E447
S1130390AEC074E560ED94E284E4A9C077E36DE94E
S11303A09EE284E4A4C079E46FEF98E384E49FC000
S11303B07AE66FEF93E484E49AC070E067EA9FE41E
S11303C084E495C070E060E09CE584E490C076EF3E
S11303D064E199E684E48BC070E161EF96E784E41C
S11303E086C073E160ED92E884E481C070E667E959
S11303F09AE884E47CC077E165ED92E984E477C00F
S113040071E460E99BE984E472C074E560ED94EA08
S113041084E46DC077E36DE99EEA84E468C079E41E
S11304206FEF98EB84E463C07AE66FEF93EC84E4B7
S11304305EC070E067EA9FEC84E459C070E060E05D
S11304409CED84E454C076EF64E199EE84E44FC0FB
S113045070E161EF96EF84E44AC073E160ED92E0ED
S113046085E445C070E667E99AE085E440C077E139
S113047065ED92E185E43BC071E460E99BE185E4CC
S113048036C074E560ED94E285E431C077E36DE94C
S11304909EE285E42CC079E46FEF98E385E427C0FD
S11304A07AE66FEF93E485E422C070E067EA9FE4A4
S11304B085E41DC070E060E09CE585E418C076EF3B
S11304C064E199E685E413C070E161EF96E785E4A1
S11304D00EC073E160ED92E885E409C070E060E06D
S11304E090E080E004C070E060E09CED81E4462F81
S11304F0282F672F742F892F922F089585B5856033
S113050085BD16BCEEE6F0E08081826080838FEFCB
S113051087BD7894109204020895E0E8F0E08081A9
S113052080648083E1E8F0E0808181608083808161
S11305308860808310928400109285008EE88093F6
S1130540890088E0809388008FEF80938B008093EC
S11305508A000895CF92DF92EF92FF926B017C01A3
S113056023EA39E74BEE5CE40E948905882309F409
S113057041C020E030E0A901C701B6010E9489050D
S1130580811106C0E0E8F0E080818F7B808332C077
S11305901092850010928400E0E8F0E0808180648D
S11305A08083A7019601C701B6010E9425059B011E
S11305B0AC0160E070E080E89FE30E948D052DEBC4
S11305C037E346E054E30E948D050E94F5059B0144
S11305D0772314F461507F4F672F770F770B609365
S11305E08900C901907899231CF401979F6F0196A3
S11305F080938800FF90EF90DF90CF900895CF9381
S1130600DF9381E38093050223E32093060294E3BE
S1130610909307028093080238E330930902809391
S11306200A0220930B0290930C0280930D022093F4
S11306300E0290930F028093100239E3309311025B
S11306408093120220931302909314028093150254
S11306502093160290931702809318023BE3309381
S1130660190280931A0220931B0290931C02809318
S11306701D0220931E0290931F02809320023DE3EB
S11306803093210280932202209323029093240228
S1130690C5E0D2E0E5E2F2E0DE0180E090E04D91D9
S11306A09C0127703327232B99F09C012770307805
S11306B0332334F421503109286F3F6F2F5F3F4FAC
S11306C02330310529F02530310511F0408302C073
S11306D042504083019631968032910501F7E5E45A
S11306E0F2E0A5E0B2E080E090E04D919C0127703B
S11306F03327232B99F09C0127703078332334F46B
S113070021503109286F3F6F2F5F3F4F2330310550
S113071029F02530310511F0408302C04450408354
S1130720019631968032910501F7E5E6F2E080E02A
S113073090E049919C0127703327232B99F09C0169
S113074027703078332334F421503109286F3F6FF8
S11307502F5F3F4F2330310529F02530310511F04B
S1130760408302C047504083019631968031910501
S113077001F7A5E1B2E0E5E7F2E080E090E04D9119
S11307809C0127703327232B99F09C012770307824
S1130790332334F421503109286F3F6F2F5F3F4FCB
S11307A02330310529F02530310511F0408302C092
S11307B045504083019631968031910501F780912F
S11307C005020E94AC000E94AA02DF91CF91089515
S11307D0CF93DF9378B121E030E0F90102C0EE0F4E
S11307E0FF1F4A95E2F7AF01CE2FC0957C2378B95D
S11307F0F90102C0EE0FFF1F6A95E2F7BF01DE2F79
S11308006095E8E0F0E020E830E0D901A823B923BE
S1130810AB2B21F078B17D2B78B903C078B1762366
S113082078B978B1742B78B978B17C2378B93595D7
S11308302795319751F7DF91CF910895CF93DF93A7
S11308404298439A4398C0E0D0E08091020190918D
S11308500301FE01EC5FFE4FE80FF91F40E050E09A
S113086061E070E0808190E00E94E803429A87EBA7
S11308709BE00197F1F700C0000042984498449A25
S11308802196C830D10509F7DF91CF910895389AA0
S1130890399A3A9A3B9A3C9A219A8FEF8AB94498AA
S11308A04398419840984298439A43980E947E0204
S11308B00E948D020E94FF02E8E0F1E0AAE0B1E0AC
S11308C080E090E0CC24C3946894DD24D1F868944B
S11308D0EE24E2F86894FF24F3F800E110E270E4F7
S11308E060E85F019F0124503109E901C8829F013A
S11308F023503109E901D8829F0122503109E901CD
S1130900E8829F0121503109E901F8820083AD0199
S11309109D0121503109E90118837C939C012C5FCE
S11309203E4FE9016F839C012F713078332334F4F7
S113093021503109206E3F6F2F5F3F4F2831310521
S113094049F4E501288121602883EA012881216096
S1130950288307C02830310521F4E501288121606E
S11309602883089638961896883F910509F0B9CFE0
S1130970809104018BB980910201909103010E943E
S11309801E048FE097E20197F1F700C00000F3CF57
S11309902091020130910301820F931F9093030170
S11309A080930201809102019091030180389105A6
S11309B020F0109203011092020108951F920F92E9
S11309C00FB60F9211242F933F934F935F936F931E
S11309D07F938F939F93AF93BF93EF93FF938091F4
S11309E004028F5F809304029091040280910001BD
S11309F09817C8F01092040281E090E00E94C804A5
S1130A00E0910201F0910301EC5FFE4F80818BB90C
S1130A10E0910201F0910301EB5FFD4F80810E94A0
S1130A20AC000E94AA02FF91EF91BF91AF919F91F8
S1130A308F917F916F915F914F913F912F910F9083
S1130A400FBE0F901F9018955058BB27AA270ED0A1
S1130A5038C129D130F02ED120F031F49F3F11F468
S1130A601EF41EC10EF4E095E7FB14C1E92F3AD140
S1130A7080F3BA17620773078407950718F071F4B7
S1130A809EF552C10EF4E0950B2EBA2FA02D0B014A
S1130A90B90190010C01CA01A0011124FF27591BBF
S1130AA099F0593F50F4503E68F11A16F040A22FC5
S1130AB0232F342F4427585FF3CF46953795279536
S1130AC0A795F0405395C9F77EF41F16BA0B620B35
S1130AD0730B840BBAF09150A1F0FF0FBB1F661F7C
S1130AE0771F881FC2F70EC0BA0F621F731F841FBF
S1130AF048F4879577956795B795F7959E3F08F0E5
S1130B00B3CF9395880F08F09927EE0F97958795A3
S1130B1008959CD008F481E008950CD0D2C0CAD0C6
S1130B2040F0C1D030F021F45F3F19F0B3C051114F
S1130B30FCC0B6C0D7D098F39923C9F35523B1F3B9
S1130B40951B550BBB27AA2762177307840738F038
S1130B509F5F5F4F220F331F441FAA1FA9F333D097
S1130B600E2E3AF0E0E830D091505040E695001C4B
S1130B70CAF729D0FE2F27D0660F771F881FBB1F07
S1130B80261737074807AB07B0E809F0BB0B802DE1
S1130B90BF01FF2793585F4F2AF09E3F510568F02D
S1130BA079C0C3C05F3FECF3983EDCF3869577953C
S1130BB06795B795F7959F5FC9F7880F911D96952F
S1130BC0879597F90895E1E0660F771F881FBB1F8B
S1130BD0621773078407BA0720F0621B730B840B38
S1130BE0BA0BEE1F88F7E095089504D06894B1110C
S1130BF09CC008957FD088F09F5790F0B92F992713
S1130C00B751A0F0D1F0660F771F881F991F1AF013
S1130C10BA95C9F712C0B13081F086D0B1E0089519
S1130C2083C0672F782F8827B85F39F0B93FCCF39A
S1130C30869577956795B395D9F73EF49095809509
S1130C40709561957F4F8F4F9F4F0895990F0008BE
S1130C50550FAA0BE0E8FEEF16161706E807F9078A
S1130C60C0F012161306E407F50798F0621B730B25
S1130C70840B950B39F40A2661F0232B242B252BA6
S1130C8021F408950A2609F4A140A6958FEF811D49
S1130C90811D089597F99F6780E870E060E00895EA
S1130CA09FEF80EC089500240A9416161706180680
S1130CB00906089500240A9412161306140605065C
S1130CC00895092E0394000C11F4882352F0BB0FED
S1130CD040F4BF2B11F460FF04C06F5F7F4F8F4F50
S1130CE09F4F089557FD9058440F551F59F05F3F8B
S1130CF071F04795880F97FB991F61F09F3F79F03A
S1130D0087950895121613061406551FF2CF4695BB
S1130D10F1DF08C0161617061806991FF1CF86953D
S1130D207105610508940895E894BB276627772721
S1130D30CB0197F90895EE0FFF1F0590F491E02D74
S1090D400994F894FFCFB2
S1050D460400A3
S9030000FC
