S01D000050616E61736F6E6963383530205655206D657465722E73726563C6
S113000010C015C014C013C012C011C010C00FC05E
S11300100EC00DC00CC00BC00AC009C008C007C088
S113002006C011241FBECFEDCDBF23D058C0E8CFEA
S113003084309105E8F44BB321E030E0B90102C00B
S1130040660F771F8A95E2F7CB01942F982B9BBB01
S1130050EFE3FCE93197F1F700C000009BB3809512
S113006089238BBB8FE39CE90197F1F700C0000063
S11300700895D09AD19AD29AD39AD49880E090E0F5
S1130080D7DF2FE78AE196E0215080409040E1F7E6
S113009000C0000081E090E0CBDF2FE78AE196E02A
S11300A0215080409040E1F700C0000082E090E0E1
S11300B0BFDF2FE78AE196E0215080409040E1F7CE
S11300C000C0000083E090E0B3DF2FE78AE196E010
S11300D0215080409040E1F700C00000CFCFF89459
S10500E0FFCF4C
S9030000FC
