:100000000C9434000C9451000C9451000C94B000EA
:100010000C9451000C9451000C9451000C9451001C
:100020000C9451000C9451000C9451000C9451000C
:100030000C9451000C9458010C9451000C945100F4
:100040000C9451000C9451000C9451000C945100EC
:100050000C9451000C9451000C9451000C945100DC
:100060000C9451000C94510011241FBECFEFD8E026
:10007000DEBFCDBF11E0A0E0B1E0EAE9F8E002C0E8
:1000800005900D92AA30B107D9F721E0AAE0B1E0BE
:1000900001C01D92AB31B207E1F70E947D010C94C3
:1000A0004B040C9400000F93CF93DF930F7DE1E09E
:1000B000F0E00D3439F49FEF940F02C0EE0FFF1FF4
:1000C0009A95E2F7A1E0B0E0ED0102C0CC0FDD1F90
:1000D0006A95E2F7BE015C2F6095ED0102C0CC0F7E
:1000E000DD1F8A95E2F7CE017C2F70954423C9F07D
:1000F000DF01A223B3239BB1AB2B11F0952B01C0E1
:1001000096239BB99BB197239BB99BB1982B9BB925
:100110000D3419F4F695E79502C0EE0FFF1F41501C
:10012000E5CFDF91CF910F910895E0E8F0E0808175
:100130008C728083E1E8F0E0808181608083EFE66B
:10014000F0E08081816080830895E8E6F0E08081BE
:1001500081608083EBE6F0E0808181608083089598
:100160001F920F920FB60F9211248F929F92AF920F
:10017000BF92CF92DF92EF92FF922F933F934F93D4
:100180005F936F937F938F939F93AF93BF93EF93FF
:10019000FF9393B180918400C090850090FF6FC061
:1001A000D12CDC2CCC24C80ED11C80910F01909155
:1001B000100101969093100180930F01E12CF12C16
:1001C0008091110190911201A0911301B09114013D
:1001D000DC01992788278C0D9D1DAE1DBF1D803227
:1001E000914AA740B10508F44AC0109285001092C8
:1001F000840060910F017091100180E090E00E94F6
:1002000027034B015C01C701B6010E94270325E9C2
:100210003FEB46E553E30E94DE036B017C016091F6
:1002200011017091120180911301909114010E94AB
:10023000270325E93FEB46E55BE30E94DE039B01D4
:10024000AC01C701B6010E9415029B01AC01C501BA
:10025000B4010E94860260930B0170930C0180939D
:100260000D0190930E011092100110920F01109247
:100270001101109212011092130110921401FF91BA
:10028000EF91BF91AF919F918F917F916F915F910E
:100290004F913F912F91FF90EF90DF90CF90BF90C3
:1002A000AF909F908F900F900FBE0F901F9018955A
:1002B0001F920F920FB60F9211248F939F93AF93BB
:1002C000BF938091110190911201A0911301B091FF
:1002D00014010196A11DB11D80931101909312018B
:1002E000A0931301B0931401BF91AF919F918F918F
:1002F0000F900FBE0F901F9018952098559A579AFF
:10030000569A78940E9495000E94A500AA24A3946E
:10031000B12C80910A01863018F580910A0190E095
:10032000FC01EB5EFE4F40810896950102C0220F52
:10033000331F8A95E2F7242B0DE640E165E087E064
:100340000E9453005E985E9A8FE097E20197F1F762
:1003500000C0000080910A018F5F80930A01D9CF0D
:1003600010920A0140900B0150900C0160900D0119
:1003700070900E010DE010E0C3E680E8C82E86E91B
:10038000D82E88E1E82E8BE4F82EA7019601C30150
:10039000B2010E94D90387FD02C0C33619F0C630EE
:1003A000A4F501C0C0E0A7019601C301B2010E94FB
:1003B00086020E94F802D62F70E080E090E00E9452
:1003C0002703A70196010E94DE039B01AC01C30134
:1003D000B2010E9414022B013C01ED2FF0E0E0502D
:1003E000FF4FD08120E030E040E85FE3C701B60175
:1003F0000E948102EC2F0C2E000CFF0BEB5EFE4FD7
:10040000811101C0D068D083CF5F20E030E040E2AE
:1004100051E4C701B6010E9486026B017C010150C4
:10042000110909F0B2CF79CF5058BB27AA270E94F3
:100430002C020C949F030E94910338F00E949803B1
:1004400020F039F49F3F19F426F40C948E030EF437
:10045000E095E7FB0C948803E92F0E94B00358F362
:10046000BA17620773078407950720F079F4A6F599
:100470000C94D2030EF4E0950B2EBA2FA02D0B0195
:10048000B90190010C01CA01A0011124FF27591BD9
:1004900099F0593F50F4503E68F11A16F040A22FDF
:1004A000232F342F4427585FF3CF46953795279550
:1004B000A795F0405395C9F77EF41F16BA0B620B4F
:1004C000730B840BBAF09150A1F0FF0FBB1F661F96
:1004D000771F881FC2F70EC0BA0F621F731F841FD9
:1004E00048F4879577956795B795F7959E3F08F0FF
:1004F000B0CF9395880F08F09927EE0F97958795C1
:1005000008950E94640308F481E008950E949A020D
:100510000C949F030E94980358F00E94910340F0AE
:1005200029F45F3F29F00C94880351110C94D303F4
:100530000C948E030E94B00368F39923B1F3552302
:1005400091F3951B550BBB27AA27621773078407E6
:1005500038F09F5F5F4F220F331F441FAA1FA9F37C
:1005600035D00E2E3AF0E0E832D091505040E6956A
:10057000001CCAF72BD0FE2F29D0660F771F881FCB
:10058000BB1F261737074807AB07B0E809F0BB0BBE
:10059000802DBF01FF2793585F4F3AF09E3F5105D2
:1005A00078F00C9488030C94D3035F3FE4F3983EF7
:1005B000D4F3869577956795B795F7959F5FC9F7BB
:1005C000880F911D9695879597F90895E1E0660F3C
:1005D000771F881FBB1F621773078407BA0720F0B5
:1005E000621B730B840BBA0BEE1F88F7E09508951E
:1005F0000E94B80388F09F5798F0B92F9927B751F8
:10060000B0F0E1F0660F771F881F991F1AF0BA95B6
:10061000C9F714C0B13091F00E94D203B1E008953F
:100620000C94D203672F782F8827B85F39F0B93F31
:10063000CCF3869577956795B395D9F73EF4909569
:100640008095709561957F4F8F4F9F4F0895E894E7
:1006500009C097FB3EF490958095709561957F4F0A
:100660008F4F9F4F9923A9F0F92F96E9BB279395B8
:10067000F695879577956795B795F111F8CFFAF4C8
:10068000BB0F11F460FF1BC06F5F7F4F8F4F9F4FF9
:1006900016C0882311F096E911C0772321F09EE857
:1006A000872F762F05C0662371F096E8862F70E0BD
:1006B00060E02AF09A95660F771F881FDAF7880F97
:1006C0009695879597F90895990F0008550FAA0BED
:1006D000E0E8FEEF16161706E807F907C0F0121655
:1006E0001306E407F50798F0621B730B840B950B58
:1006F00039F40A2661F0232B242B252B21F40895AD
:100700000A2609F4A140A6958FEF811D811D089549
:1007100097F99F6780E870E060E008959FEF80ECB4
:10072000089500240A941616170618060906089557
:1007300000240A9412161306140605060895092EBD
:100740000394000C11F4882352F0BB0F40F4BF2B2C
:1007500011F460FF04C06F5F7F4F8F4F9F4F08956C
:1007600057FD9058440F551F59F05F3F71F0479562
:10077000880F97FB991F61F09F3F79F08795089547
:10078000121613061406551FF2CF4695F1DF08C066
:10079000161617061806991FF1CF86957105610583
:1007A00008940895E894BB2766277727CB0197F92B
:1007B00008950E94640308F48FEF08950E94F103E6
:1007C0000C949F030E94910338F00E94980320F03C
:1007D000952311F00C9488030C948E0311240C942F
:1007E000D3030E94B00370F3959FC1F3950F50E0BF
:1007F000551F629FF001729FBB27F00DB11D639FD3
:10080000AA27F00DB11DAA1F649F6627B00DA11D78
:10081000661F829F2227B00DA11D621F739FB00D1E
:10082000A11D621F839FA00D611D221F749F33278E
:10083000A00D611D231F849F600D211D822F762F27
:100840006A2F11249F5750409AF0F1F088234AF004
:10085000EE0FFF1FBB1F661F771F881F9150504070
:10086000A9F79E3F510580F00C9488030C94D303A4
:100870005F3FE4F3983ED4F3869577956795B795F7
:10088000F795E7959F5FC1F7FE2B880F911D969511
:0A089000879597F90895F894FFCFBB
:0A089A003F065B4F666D7D077F6728
:00000001FF
